{
	"practises/statevariabels.sol": {
		"state": {
			"abi": [
				{
					"inputs": [],
					"stateMutability": "nonpayable",
					"type": "constructor"
				},
				{
					"inputs": [],
					"name": "birth",
					"outputs": [
						{
							"internalType": "uint256",
							"name": "",
							"type": "uint256"
						}
					],
					"stateMutability": "view",
					"type": "function"
				},
				{
					"inputs": [],
					"name": "getx",
					"outputs": [],
					"stateMutability": "nonpayable",
					"type": "function"
				},
				{
					"inputs": [],
					"name": "x",
					"outputs": [
						{
							"internalType": "uint256",
							"name": "",
							"type": "uint256"
						}
					],
					"stateMutability": "view",
					"type": "function"
				},
				{
					"inputs": [],
					"name": "y",
					"outputs": [
						{
							"internalType": "uint256",
							"name": "",
							"type": "uint256"
						}
					],
					"stateMutability": "view",
					"type": "function"
				}
			],
			"devdoc": {
				"kind": "dev",
				"methods": {},
				"version": 1
			},
			"evm": {
				"assembly": "    /* \"practises/statevariabels.sol\":70:613  contract state{... */\n  mstore(0x40, 0x80)\n    /* \"practises/statevariabels.sol\":353:355  20 */\n  0x14\n    /* \"practises/statevariabels.sol\":337:355  uint public y = 20 */\n  0x03\n  sstore\n    /* \"practises/statevariabels.sol\":455:534  constructor(){... */\n  callvalue\n  dup1\n  iszero\n  tag_1\n  jumpi\n  0x00\n  dup1\n  revert\ntag_1:\n  pop\n    /* \"practises/statevariabels.sol\":485:487  20 */\n  0x14\n    /* \"practises/statevariabels.sol\":483:484  x */\n  0x02\n    /* \"practises/statevariabels.sol\":483:487  x=20 */\n  dup2\n  swap1\n  sstore\n  pop\n    /* \"practises/statevariabels.sol\":70:613  contract state{... */\n  dataSize(sub_0)\n  dup1\n  dataOffset(sub_0)\n  0x00\n  codecopy\n  0x00\n  return\nstop\n\nsub_0: assembly {\n        /* \"practises/statevariabels.sol\":70:613  contract state{... */\n      mstore(0x40, 0x80)\n      callvalue\n      dup1\n      iszero\n      tag_1\n      jumpi\n      0x00\n      dup1\n      revert\n    tag_1:\n      pop\n      jumpi(tag_2, lt(calldatasize, 0x04))\n      shr(0xe0, calldataload(0x00))\n      dup1\n      0x0c55699c\n      eq\n      tag_3\n      jumpi\n      dup1\n      0xa56dfe4a\n      eq\n      tag_4\n      jumpi\n      dup1\n      0xc81ba8f0\n      eq\n      tag_5\n      jumpi\n      dup1\n      0xe276c799\n      eq\n      tag_6\n      jumpi\n    tag_2:\n      0x00\n      dup1\n      revert\n        /* \"practises/statevariabels.sol\":264:277  uint public x */\n    tag_3:\n      tag_7\n      tag_8\n      jump\t// in\n    tag_7:\n      mload(0x40)\n      tag_9\n      swap2\n      swap1\n      tag_10\n      jump\t// in\n    tag_9:\n      mload(0x40)\n      dup1\n      swap2\n      sub\n      swap1\n      return\n        /* \"practises/statevariabels.sol\":337:355  uint public y = 20 */\n    tag_4:\n      tag_11\n      tag_12\n      jump\t// in\n    tag_11:\n      mload(0x40)\n      tag_13\n      swap2\n      swap1\n      tag_10\n      jump\t// in\n    tag_13:\n      mload(0x40)\n      dup1\n      swap2\n      sub\n      swap1\n      return\n        /* \"practises/statevariabels.sol\":142:159  uint public birth */\n    tag_5:\n      tag_14\n      tag_15\n      jump\t// in\n    tag_14:\n      mload(0x40)\n      tag_16\n      swap2\n      swap1\n      tag_10\n      jump\t// in\n    tag_16:\n      mload(0x40)\n      dup1\n      swap2\n      sub\n      swap1\n      return\n        /* \"practises/statevariabels.sol\":554:610  function getx() public {... */\n    tag_6:\n      tag_17\n      tag_18\n      jump\t// in\n    tag_17:\n      stop\n        /* \"practises/statevariabels.sol\":264:277  uint public x */\n    tag_8:\n      sload(0x02)\n      dup2\n      jump\t// out\n        /* \"practises/statevariabels.sol\":337:355  uint public y = 20 */\n    tag_12:\n      sload(0x03)\n      dup2\n      jump\t// out\n        /* \"practises/statevariabels.sol\":142:159  uint public birth */\n    tag_15:\n      sload(0x01)\n      dup2\n      jump\t// out\n        /* \"practises/statevariabels.sol\":554:610  function getx() public {... */\n    tag_18:\n        /* \"practises/statevariabels.sol\":596:598  30 */\n      0x1e\n        /* \"practises/statevariabels.sol\":592:593  x */\n      0x02\n        /* \"practises/statevariabels.sol\":592:598  x = 30 */\n      dup2\n      swap1\n      sstore\n      pop\n        /* \"practises/statevariabels.sol\":554:610  function getx() public {... */\n      jump\t// out\n        /* \"#utility.yul\":7:84   */\n    tag_20:\n        /* \"#utility.yul\":44:51   */\n      0x00\n        /* \"#utility.yul\":73:78   */\n      dup2\n        /* \"#utility.yul\":62:78   */\n      swap1\n      pop\n        /* \"#utility.yul\":7:84   */\n      swap2\n      swap1\n      pop\n      jump\t// out\n        /* \"#utility.yul\":90:208   */\n    tag_21:\n        /* \"#utility.yul\":177:201   */\n      tag_25\n        /* \"#utility.yul\":195:200   */\n      dup2\n        /* \"#utility.yul\":177:201   */\n      tag_20\n      jump\t// in\n    tag_25:\n        /* \"#utility.yul\":172:175   */\n      dup3\n        /* \"#utility.yul\":165:202   */\n      mstore\n        /* \"#utility.yul\":90:208   */\n      pop\n      pop\n      jump\t// out\n        /* \"#utility.yul\":214:436   */\n    tag_10:\n        /* \"#utility.yul\":307:311   */\n      0x00\n        /* \"#utility.yul\":345:347   */\n      0x20\n        /* \"#utility.yul\":334:343   */\n      dup3\n        /* \"#utility.yul\":330:348   */\n      add\n        /* \"#utility.yul\":322:348   */\n      swap1\n      pop\n        /* \"#utility.yul\":358:429   */\n      tag_27\n        /* \"#utility.yul\":426:427   */\n      0x00\n        /* \"#utility.yul\":415:424   */\n      dup4\n        /* \"#utility.yul\":411:428   */\n      add\n        /* \"#utility.yul\":402:408   */\n      dup5\n        /* \"#utility.yul\":358:429   */\n      tag_21\n      jump\t// in\n    tag_27:\n        /* \"#utility.yul\":214:436   */\n      swap3\n      swap2\n      pop\n      pop\n      jump\t// out\n\n    auxdata: 0xa26469706673582212206e1136cba05e6d3e0f25c06fb6c2e0f0c2f20e091d8e81252083408bf348dea864736f6c63430008180033\n}\n",
				"bytecode": {
					"linkReferences": {},
					"object": "60806040526014600355348015610014575f80fd5b50601460028190555061011d8061002a5f395ff3fe6080604052348015600e575f80fd5b50600436106044575f3560e01c80630c55699c146048578063a56dfe4a146062578063c81ba8f014607c578063e276c799146096575b5f80fd5b604e609e565b6040516059919060d0565b60405180910390f35b606860a4565b6040516073919060d0565b60405180910390f35b608260aa565b604051608d919060d0565b60405180910390f35b609c60b0565b005b60025481565b60035481565b60015481565b601e600281905550565b5f819050919050565b60ca8160ba565b82525050565b5f60208201905060e15f83018460c3565b9291505056fea26469706673582212206e1136cba05e6d3e0f25c06fb6c2e0f0c2f20e091d8e81252083408bf348dea864736f6c63430008180033",
					"opcodes": "PUSH1 0x80 PUSH1 0x40 MSTORE PUSH1 0x14 PUSH1 0x3 SSTORE CALLVALUE DUP1 ISZERO PUSH2 0x14 JUMPI PUSH0 DUP1 REVERT JUMPDEST POP PUSH1 0x14 PUSH1 0x2 DUP2 SWAP1 SSTORE POP PUSH2 0x11D DUP1 PUSH2 0x2A PUSH0 CODECOPY PUSH0 RETURN INVALID PUSH1 0x80 PUSH1 0x40 MSTORE CALLVALUE DUP1 ISZERO PUSH1 0xE JUMPI PUSH0 DUP1 REVERT JUMPDEST POP PUSH1 0x4 CALLDATASIZE LT PUSH1 0x44 JUMPI PUSH0 CALLDATALOAD PUSH1 0xE0 SHR DUP1 PUSH4 0xC55699C EQ PUSH1 0x48 JUMPI DUP1 PUSH4 0xA56DFE4A EQ PUSH1 0x62 JUMPI DUP1 PUSH4 0xC81BA8F0 EQ PUSH1 0x7C JUMPI DUP1 PUSH4 0xE276C799 EQ PUSH1 0x96 JUMPI JUMPDEST PUSH0 DUP1 REVERT JUMPDEST PUSH1 0x4E PUSH1 0x9E JUMP JUMPDEST PUSH1 0x40 MLOAD PUSH1 0x59 SWAP2 SWAP1 PUSH1 0xD0 JUMP JUMPDEST PUSH1 0x40 MLOAD DUP1 SWAP2 SUB SWAP1 RETURN JUMPDEST PUSH1 0x68 PUSH1 0xA4 JUMP JUMPDEST PUSH1 0x40 MLOAD PUSH1 0x73 SWAP2 SWAP1 PUSH1 0xD0 JUMP JUMPDEST PUSH1 0x40 MLOAD DUP1 SWAP2 SUB SWAP1 RETURN JUMPDEST PUSH1 0x82 PUSH1 0xAA JUMP JUMPDEST PUSH1 0x40 MLOAD PUSH1 0x8D SWAP2 SWAP1 PUSH1 0xD0 JUMP JUMPDEST PUSH1 0x40 MLOAD DUP1 SWAP2 SUB SWAP1 RETURN JUMPDEST PUSH1 0x9C PUSH1 0xB0 JUMP JUMPDEST STOP JUMPDEST PUSH1 0x2 SLOAD DUP2 JUMP JUMPDEST PUSH1 0x3 SLOAD DUP2 JUMP JUMPDEST PUSH1 0x1 SLOAD DUP2 JUMP JUMPDEST PUSH1 0x1E PUSH1 0x2 DUP2 SWAP1 SSTORE POP JUMP JUMPDEST PUSH0 DUP2 SWAP1 POP SWAP2 SWAP1 POP JUMP JUMPDEST PUSH1 0xCA DUP2 PUSH1 0xBA JUMP JUMPDEST DUP3 MSTORE POP POP JUMP JUMPDEST PUSH0 PUSH1 0x20 DUP3 ADD SWAP1 POP PUSH1 0xE1 PUSH0 DUP4 ADD DUP5 PUSH1 0xC3 JUMP JUMPDEST SWAP3 SWAP2 POP POP JUMP INVALID LOG2 PUSH5 0x6970667358 0x22 SLT KECCAK256 PUSH15 0x1136CBA05E6D3E0F25C06FB6C2E0F0 0xC2 CALLCODE 0xE MULMOD SAR DUP15 DUP2 0x25 KECCAK256 DUP4 BLOCKHASH DUP12 RETURN BASEFEE 0xDE 0xA8 PUSH5 0x736F6C6343 STOP ADDMOD XOR STOP CALLER "
				},
				"gasEstimates": {
					"creation": {
						"codeDepositCost": "57000",
						"executionCost": "44323",
						"totalCost": "101323"
					},
					"external": {
						"birth()": "2447",
						"getx()": "22301",
						"x()": "2403",
						"y()": "2425"
					}
				},
				"methodIdentifiers": {
					"birth()": "c81ba8f0",
					"getx()": "e276c799",
					"x()": "0c55699c",
					"y()": "a56dfe4a"
				}
			},
			"storageLayout": {
				"storage": [
					{
						"astId": 3,
						"contract": "practises/statevariabels.sol:state",
						"label": "age",
						"offset": 0,
						"slot": "0",
						"type": "t_uint256"
					},
					{
						"astId": 5,
						"contract": "practises/statevariabels.sol:state",
						"label": "birth",
						"offset": 0,
						"slot": "1",
						"type": "t_uint256"
					},
					{
						"astId": 7,
						"contract": "practises/statevariabels.sol:state",
						"label": "x",
						"offset": 0,
						"slot": "2",
						"type": "t_uint256"
					},
					{
						"astId": 10,
						"contract": "practises/statevariabels.sol:state",
						"label": "y",
						"offset": 0,
						"slot": "3",
						"type": "t_uint256"
					}
				],
				"types": {
					"t_uint256": {
						"encoding": "inplace",
						"label": "uint256",
						"numberOfBytes": "32"
					}
				}
			},
			"userdoc": {
				"kind": "user",
				"methods": {},
				"version": 1
			}
		}
	}
}